:020000040000FA
:0600000002010A021E23AA
:03002B000222A40A
:0300330002228620
:03003B000222BDE1
:0300430002223A5C
:03005300021E96F4
:03006B000222600E
:10008300021CD7E5C754F84401F5C77901220000E3
:100093000080FB120086B900030200F4E4792178A2
:1000A30008B800028004F709D8FCE479297802B87B
:1000B30000028004F709D8FCE490028178397909B9
:1000C3008002F0A3D8FCD9FA900AB9AA82AB839034
:1000D300013A780379048015E493A3AC82AD838A53
:1000E300828B83F0A3AA82AB838C828D83D8E9D9D8
:1000F300E77582187583A5740312011C75829175C7
:100103008300740012011C75D00075813F7518813E
:10011300751902759F00020096C09FF59FE473D086
:100123009F22D083D082C09FE493C0E0740193C028
:10013300E0740293F59F22FF0000B400002800281A
:1001430000283075A000A000A000A000000800084F
:10015300E001F0001000100010001000100010006B
:1001630050005000500010001000D00700000000A5
:1001730000000F00010005003075070010000100AA
:1001830081FF0000FF3A0658064006FF02020208FC
:10019300025000A0000000E803020E85010000F2F7
:1001A300840208850100000E0B020285010000B2E3
:1001B300020208850100000F0B02FE84010000C843
:1001C30002020885010000100B020085010000CA2D
:1001D30002020885010000110B022A85080000CBEA
:1001E30002020885010000120B020A8501000013B8
:1001F3000BFF0100FF20020E85010000FB840208B3
:1002030085010000770B0204850000000000021244
:10021300850300001803160C160C160C160C160C8E
:10022300160C160C160C160C160C160C160C160CBB
:10023300920EAA0E8C0EFFFF0202020202020202BB
:1002430002010D0000001001020E85010000F5847B
:10025300020885010000BA0B022685010000780719
:10026300020885010000BB0B022485010000AB835B
:10027300020885010000BC0B022285010000828375
:10028300020885010000BD0B022085010000DF820A
:10029300020885010000BE0B021E85010000CD820D
:1002A300020885010000BF0B021C85010000BB8210
:1002B300020885010000C00B021A85010000A98213
:1002C300020885010000C10B02168501000090831E
:1002D300020885010000C20B021485010000C30B54
:1002E30001E803053F10FF0001307503020106001A
:1002F30000000000000000000000000000000000FB
:100303000000000000000000000000FFFF06008066
:100313000CE803140953696D706C65424C455065D4
:10032300726970686572616C051250002003020ADD
:10033300000201060302F0FF53696D706C652042F1
:100343004C45205065726970686572616C1E1300BC
:10035300003013361324130A4368617261637465B2
:100363007269737469632031000243686172616367
:10037300746572697374696320320008436861723B
:100383006163746572697374696320330010436831
:100393006172616374657269737469632034000206
:1003A300436861726163746572697374696320354C
:1003B30000020E85010000EF84020885010000D9C8
:1003C3000C023085030000AA0A020685010000DA48
:1003D3000C020885010000EB0C023285010000AB22
:1003E3000A020685010000EC0C020885010000FDED
:1003F3000C023485020000AC0A020685010000FEEF
:100403000C0208850100000F0D023685000000ADC7
:100413000A021285030000AE0A02068501000010DD
:100423000D020885010000210D023885040000B487
:100433000A020685010000220D120125909803127D
:100443000125A79803120125D698031201250F99B8
:10045300031201253799031201256599031201251A
:100463007C9903120125939903120125A99903127B
:100473000125D09903120125E39903120125F99966
:10048300031201250C9A03120125319A0312012547
:1004930011A40212012510A50212012545A502127D
:1004A300012566A50212012576A50212012597A54D
:1004B30002120125A3A60212012570A7021201252B
:1004C300E3A70212012569A802120125ACA80212B2
:1004D3000125E3A80212012569A9021201253BAAFD
:1004E3000212012599AA02120125B1AA02120125BD
:1004F3002BAB021201252EAB0212012531AB0212E6
:100503000125D8AB02120125F0AB0212012520AC64
:100513000212012540AC021201252EAD0212012563
:10052300E4AD021201258DE502120125B5E50212A3
:100533000125E3E5021201251AE60212012582E6EE
:1005430002120125CBE60212012516E7021201254C
:1005530054E70212012591E702120125BFE70212B7
:10056300012566E80212012570E8021201257DE8E3
:1005730002120125B0E80212012572E902120125D7
:100583007EE90212012596E902120125A0E9021271
:100593000125C0A003120125CEA003120125E6A068
:1005A30003120125FEA0031201254AA80112012509
:1005B300E8A80112012560A90112012575AA0112FB
:1005C3000125AFAA0112012558AB011201252DAC5B
:1005D3000112012591AD01120125E8AD011201259A
:1005E3006FAE0112012556AF01120125A3AF01120F
:1005F300012531B00112012555B0011201252AB29E
:10060300011201256BB2011201258DB201120125E0
:100613000EB301120125F8B301120125BEB4011274
:10062300012541CE0212012513CF02120125BCCFB1
:1006330002120125FFCF021201258CD002120125DF
:1006430018D102120125F9D10212012528D2021272
:10065300012524D3021201256CD3021201256ED485
:1006630002120125B2D402120125D8D402120125A7
:100673006C7F00120125F7FA021201250DFB02120D
:10068300012533FB021201255BFC0212012565FCE7
:1006930002120125BEFD02120125BEFE0212012532
:1006A300BDDB02120125F2DC0212012525DD021257
:1006B30001256FDD021201252DDF02120125ED98C0
:1006C30001120125509901120125959A0112012564
:1006D300A59A01120125C89A01120125139B011243
:1006E3000125B89B01120125AE9C01120125789DBD
:1006F30001120125F09E01120125329F01120125ED
:10070300D09F011201251DA00112012543A0011252
:10071300012531A20112012536A20112012517A4D8
:10072300011201256BA401120125CDA4011201259B
:10073300F5A40112012599A5011201255BA6011259
:1007430001258CA6011201258FA601120125D7A62A
:100753000112012519A70112012580A70112012504
:100763004990031201255C90031201257590031231
:100773000125C090031201259B91031201252A92A2
:10078300031201257592031201253023001201255E
:100793003C2300120125752300120125BA23001200
:1007A3000125712400120125F724001201255C257F
:1007B30000120125882500120125C12500120125FB
:1007C300D52700120125B129001201259C2B001207
:1007D3000125D32C00120125332F001201251F30D0
:1007E3000012012565310012012572320012012524
:1007F3008F3200120125C73200120125E1320012A7
:100803000125493300120125E337001201258438FD
:1008130000120125D53800120125FC3800120125EC
:100823004A3900120125683900120125BC3900122A
:100833000125953A001201251C3C00120125A43C18
:1008430000120125E3E002120125EDE00212012569
:10085300B8E102120125D3E102120125F9E10212E6
:1008630001253DE20212012575E2021201259EE2F5
:100873000212012517E3021201252CE302120125BE
:1008830041E30212012578E3021201258CE30212EF
:100893000125BDE302120125F7E30212012523E43A
:1008A3000212012579E402120125CDE40212012589
:1008B30016E50212012540E50212012565E5021243
:1008C30001250BF702120125D5F702120125B8F80D
:1008D300021201252EF90212012570F902120125D7
:1008E3009DFA0212012500800212012529800212BD
:1008F30001254280021201258781021201256582AA
:10090300021201258482021201251183021201259C
:10091300548302120125A18402120125408502128B
:100923000125BF87021201255688021201252A8953
:10093300021201250C8A02120125788B021201256D
:100943000B8C02120125C8FE0212012531FF02128F
:10095300012585FF02120125ACFF0212012535EAAC
:1009630002120125A2EA02120125EDEA0212012573
:10097300E2EB02120125DEEC02120125C8ED0212A0
:1009830001254FAE0212012591AE021201256BAF74
:100993000212012544B0021201253FB102120125C2
:1009A3001EB2021201258AB20212012551B30212AC
:1009B3000125BCB30212012523B4021201254EB452
:1009C30002120125BFB40212012552B502120125FC
:1009D300BBB502120125D0B50212012518B60212C9
:1009E300012531B60212012596B60212012599B6E8
:1009F300021201256B8A03120125938A0312012532
:100A0300D18A031201258F8B03120125FA8B03125E
:100A13000125168C031201253E8C031201256E8CD1
:100A2300031201257D8C03120125F78C0312012586
:100A33001D8D0312012571C5011201254EC7011237
:100A4300012549C9011201251CCA0112012567CAE2
:100A530001120125B2CA01120125C4CA01120125DE
:100A630004CB0112012539CB0112012585CB0112DB
:100A73000125B4CB01120125D7CB0112012524CCCA
:100A830001120125ADCC01120125BACE01120125B7
:100A9300A5D001120125E8D0011201254DD2011282
:100AA30001258ED20112012501D3011201254DD357
:100AB3000112012578D301120125828C021201252E
:100AC300AD8C02120125949302120125B8950212EE
:100AD3000125739702120125D098021201250B3DBF
:100AE30000120125A23D00120125E83D0012012557
:100AF300273F00120125BE40001201253841001294
:100B03000125534100120125C84100120125F74276
:100B130000120125524400120125544500120125FB
:100B2300B14600120125CA460012012527470012CB
:100B330001250948001201253C4800120125AC4853
:100B430000120125264900120125754900120125CD
:100B5300414A00120125464B00120125254C001283
:100B63000125B04C001201251E4D00120125924DA6
:100B730000120125BB4D001201257A4E00120125FA
:100B8300F44F0012012511500012012530500012BC
:100B93000125C15000120125E650001201250E5116
:100BA30000120125895100120125E351001201258C
:100BB300375300120125F45300120125C7540012C4
:100BC3000125A2D301120125F2D301120125FED37F
:100BD30001120125DBD4011201250BD501120125D8
:100BE30043D501120125C2D501120125FAD50112FF
:100BF30001254CD60112012589D601120125AED853
:100C030001120125DADA01120125D5DC01120125D1
:100C1300B0DE01120125F57F001201253C8501128A
:100C23000125868501120125658B01120125E68CBC
:100C3300011201254593011201254094011201255A
:100C43007D9401120125A09401120125E294011261
:100C53000125EB9401120125F59401120125E1957B
:100C630001120125D59601120125F5540012012523
:100C73006D5F00120125735F001201257F6600126C
:100C83000125558703120125538803120125A988DD
:100C930003120125E7880312012544890312012564
:100CA300C18903120125CA8903120125D6890312BA
:100CB3000125E98903120125258A031201253B8AAF
:100CC300031201258AEE0212012597EE0212012575
:100CD300B1EE02120125F0EE021201252EEF0212EF
:100CE300012593EF02120125A8EF02120125B3EFAC
:100CF30002120125C0EF02120125D7EF02120125CE
:100D0300E5EF02120125F0EF02120125FCEF0212BA
:100D130001250BF00212012516F00212012539F00C
:100D230002120125E2F002120125F2F0021201255E
:100D33000CF10212012529F10212012545F10212DB
:100D430001256AF10212012574F10212012588F1CD
:100D530002120125A7F10212012508F20212012550
:100D63000EF20212012514F2021201251AF20212E6
:100D7300012526F20212012559F20212012576E11C
:100D830001120125F8E101120125A1E20112012559
:100D9300E9E301120125F7E501120125DDE6011260
:100DA300012512E70112012534E701120125DDE7D0
:100DB30001120125ADE901120125D6E90112012530
:100DC3004EEA0112012580EA011201258DEA011282
:100DD3000125D8EA01120125FCEA011201254DED96
:100DE3000112012557EE01120125B3EE011201256F
:100DF300F3B60112012504B801120125E8B8011266
:100E03000125F2B80112012514B90112012520B9F7
:100E130001120125C4BA01120125F1BA01120125FB
:100E230007BC011201255CBC01120125ABBD0112F7
:100E3300012580BE01120125DCBE0112012547BF39
:100E4300011201257CBF01120125BFBF011201253B
:100E530089C201120125A1C20112012532C3011267
:100E6300012540C3011201258DC3011201259BC336
:100E73000112012507C40112012582C401120125B3
:100E8300D9C401120125F398021201251599021202
:100E93000125269B02120125E59D021201250F9FC4
:100EA30002120125CD9F02120125B9A002120125CC
:100EB300D79603120125FC9603120125729703129C
:100EC300012524C7021201252DC70212012536C7A9
:100ED300021201250EC802120125BFC90212012503
:100EE300EFC9021201251ACA021201254ACA0212C7
:100EF300012575CA02120125A9CA02120125D5CA04
:100F03000212012518CB0212012543CB021201253F
:100F13008ACB02120125DFCB0212012521CC02125A
:100F230001257BCC02120125A6CC02120125F5CCAA
:100F33000212012525CD0212012550CD02120125F1
:100F43007ECD02120125A1CD021201257CA303123D
:100F53000125A8A303120125D5A303120125DFA3AD
:100F630003120125EFA303120125F3BE021201258B
:100F7300FDBE021201253EBF0212012587BF0212E8
:100F83000125C1BF0212012517C00212012538C075
:100F930002120125E7C202120125F0C20212012545
:100FA30044C3021201256DC30212012577C3021245
:100FB3000125E5C30212012575C402120125D0C41F
:100FC30002120125FEC40212012586C50212012563
:100FD300C5C502120125FAC5021201250CC602126B
:100FE30001252BC60212012534C602120125F6C6BD
:100FF30002120125C99F03120125E694031201255C
:101003001C95031201255095031201259D96031289
:101013000125F9A3031201250FA40312012519A425
:101023000312012563A403120125D6F2021201253E
:10103300E9F202120125ADF302120125ECF30212CB
:10104300012509F40212012542F4021201258FF44D
:1010530002120125C1F402120125F8F4021201253E
:10106300529D03120125759D03120125A49D0312B0
:1010730001253C9E031201257E9E03120125658DE9
:10108300031201258A8D03120125B48D0312012554
:10109300C2A4031201253A6B00120125186D001238
:1010A3000125B76E00120125626F00120125E26F60
:1010B30000120125677000120125907000120125AE
:1010C300E27000120125BD7400120125347500126F
:1010D30001254B7600120125857600120125C6767F
:1010E300001201250D7800120125637800120125F5
:1010F300AC78001201251B790012012587790012B3
:101103000125B87900120125D07900120125E97A69
:1011130000120125F97A00120125AF7C0012012586
:10112300C67C00120125F87C001201259A7E00126C
:1011330001252E7F0012012597A103120125A8A1E5
:10114300031201256BA503120125AAA5031201258C
:10115300ECFF01120125E4A203120125F4A20312FC
:1011630001250CA30312012572A303120125C79EB7
:10117300031201254C9F03120125B09F0312012581
:10118300DB9B03120125049C031201256C9C0312B3
:101193000125BD9C03120125189D03120125EFFBB8
:1011A3000112012514FC0112012531FC0112012554
:1011B3004EFC0112012573FC0112012594FC01125E
:1011C3000125BEFC011201257BFD01120125F9FD5C
:1011D3000112012520FE011201252AFE011201251B
:1011E30063FF011201253FA60312012500800312AC
:1011F3000125908003120125198103120125B58170
:1012030003120125468203120125F68203120125EA
:10121300048303120125828303120125958303129C
:101223000125AB8303120125B58303120125C8836E
:101233000312012548A2031201254AA20312012524
:10124300CEA203120125D9A203120125439A031248
:101253000125959A03120125089B03120125759B0D
:10126300031201259F9203120125C992031201253E
:10127300989303120125749403120125BDB602123B
:10128300012589B702120125CAB70212012504B844
:101293000212012562B802120125B6B80212012515
:1012A30014B902120125AAB902120125B2BA021217
:1012B30001253CBC02120125DABC0212012541BD05
:1012C3000212012554BD0212012548BE0212012556
:1012D30091BE0212012500EF0112012532F2011223
:1012E3000125C3F3011201251AF40112012537F474
:1012F30001120125B7F40112012533F6011201256C
:1013030002F7011201256FFA0112012559FB01129F
:1013130001254DD502120125C8D70212012576D821
:10132300021201259BD9021201250DDA02120125B1
:101333008EDA02120125F2DA0212012579DB02129A
:101343000125CB83031201251084031201252D846B
:1013530003120125E38403120125368503120125B7
:101363000686031201251C8703120125EAA5031231
:101373000125B4A50312012517A603120125DDFFDC
:1013830002E066701008A3E066700A08A3E06670C6
:101393000408A3E06622C3E7960809E7960809E76D
:1013A300960809E79622C3E09608A3E09608A3E00F
:1013B3009608A3E09622C008C3E096F50808A3E0C8
:1013C30096420808A3E096420808A3E096450870F1
:1013D30001D3D00822080808EAC0E0EBC0E086F099
:1013E300E7A4FA180986F0E7A42AFA180986F0E7B1
:1013F300A42AFA180986F0E7A42AFA1986F0E7A4C2
:10140300FBE5F02AFA190886F0E7A42BFBE5F03A8E
:10141300FA190886F0E7A42BFBE5F03AFA18180945
:1014230086F0E7A4C5F02BFBE43AFA1908E7C5F008
:10143300C6A426F6E5F03BFBE43AFA1886F0E7A4E7
:10144300F6E5F00826F6E43B08F6E43A08F6D0E0C1
:10145300FBD0E0FA22E4CFC0E0E4CEC0E0E4CDC0AC
:10146300E0E4CCC0E075F020C3E633F608E633F6DB
:1014730008E633F608E633F6181818EC33FCED33B8
:10148300FDEE33FEEF33FFC3EC9709ED9709EE97BB
:1014930009EF97191919400FFFEC97FC09ED97FD18
:1014A30009EE97FE191906D5F0BEECF709EDF70919
:1014B300EEF709EFF7191919D0E0FCD0E0FDD0E001
:1014C300FED0E0FF226016080808C6C313C618C67C
:1014D30013C618C613C618C613C6D5E0EA22700988
:1014E300080808226016181818C6C333C608C6337E
:1014F300C608C633C608C633C6D5E0EA22E627F6D1
:101503000809E637F60809E637F60809E637F6224A
:10151300E026F608A3E036F608A3E036F608A3E0D3
:1015230036F622E026F008A3E036F008A3E036F012
:1015330008A3E036F022C3E697F60809E697F60813
:1015430009E697F60809E697F622C3E096F008A3A2
:10155300E096F008A3E096F008A3E096F022E056A8
:10156300F608A3E056F608A3E056F608A3E056F6FD
:1015730022E056F008A3E056F008A3E056F008A3D3
:10158300E056F022E0F608A3E0F608A3E0F608A38D
:10159300E0F622E6F008A3E6F008A3E6F008A3E6E7
:1015A300F022E0FAA3E0FBA3E0FCA3E0FD22EAF0D3
:1015B300A3EBF0A3ECF0A3EDF022CAC0E0E6F0A3A6
:1015C30008DAFAD0E0FA22CAC0E0E0A3C582CCC5AB
:1015D30082C583CDC583F0A3C582CCC582C583CD27
:1015E300C583DAE6D0E0CA22C3E498F8E499F91295
:1015F300162C8026C3E49AFAE49BFBE920E7E91260
:10160300162CE498F8E499F922C3E498F8E499F9DC
:1016130012162CE498F8E499F9C3E49AFAE49BFBD4
:1016230022EB20E7CFE920E7E0B90010BB0008E890
:101633008AF084F8AAF022E4FBC8FA22EB70227B3A
:1016430010C833C8C933C9335007C39AC3DBF28008
:10165300069A50012ADBEAC833F4C8C933F4C9FA3D
:101663002275F008E4C833C8C933C933C99AC99B82
:101673005004C92AC93BD5F0ECFBC833F4C8E4C90C
:10168300FA22600D08C6A2E713C618C613C6D5E032
:10169300F322600C08C6C313C618C613C6D5E0F4FC
:1016A30022700422600D18C6C333C608C633C6D5DC
:1016B300E0F41822251810AF08F518400215198018
:1016C30008F51840021519D2AF22C0D0251810AF63
:1016D30008F518500205198008F51850020519D2AB
:1016E300AFD0D0222518F58210AF08F518400215A7
:1016F300198008F51840021519D2AF8519832225E0
:1017030018F582E43519F58322E4732518C582C0E0
:10171300E0E51934FFC583C0E0E518C3958224F8DA
:1017230010AF0885831985821880088583198582FF
:1017330018D2AFCEF0A3E520F0A37808E608F0A313
:10174300DEFAEFF0A3E58124FAF8E608F0A3E60851
:10175300F0A3E608F0A30808E608F0A3E608F0A360
:1017630015811581D0E0FED0E0F815811581158132
:10177300E8C0E0EEC0E0222518C582C0E0E51934D8
:10178300FFC583C0E0E518C3958224F910AF08852F
:1017930083198582188008858319858218D2AFCE74
:1017A300F0A3E520F0A37808E608F0A3DEFAEFF053
:1017B300A3E58124FBF8E608F0A3E608F0A30808F4
:1017C300E608F0A3E608F0A315811581D0E0FED06A
:1017D300E0F815811581E8C0E0EEC0E022851983A9
:1017E300851882E0A3FEE0A3F5207808E0A3F608BD
:1017F300DFFAE0A3FFE0A3C0E0E0A3C0E0E0A3C002
:10180300E0E0A3C0E0E0A3C0E010AF088582188544
:1018130083198008858218858319D2AFD083D0823B
:10182300020122851983851882E0A3FEE0A3F52037
:101833007808E0A3F608DFFAE0A3FFE0A3C0E0E046
:10184300A3C0E0E0A3C0E0E0A3C0E010AF0885823E
:10185300188583198008858218858319D2AFD083B0
:10186300D08222C0D02518C582C0E0E51934FFC557
:1018730083C0E0E518C3958224F310AF088583196C
:101883008582188008858319858218D2AFC8F0A392
:10189300E9F0A3EAF0A3EBF0A37908E709F0A3D8F2
:1018A300FAECF0A3EDF0A3EEF0A3EFF0A3D0E0F099
:1018B300A3D0E0F0A3D0E0F0A3E520F0A3E5F0F09F
:1018C300A322851983851882E0C0E0A3E0F9A3E091
:1018D300FAA3E0FBA37808E0F608A3DFFAE0FCA391
:1018E300E0FDA3E0FEA3E0FFA3E0C0E0A3E0C0E0CF
:1018F300A3E0F5D0A3E0F520A3E0A3F5F010AF0833
:101903008583198582188008858319858218D2AF4B
:10191300D082D083D0E0F8D0E03274048006740221
:1019230080027401C0E0F4041216E7D0E01215BD82
:10193300227404800474028000CCC0E0EDC0E0E5B2
:1019430018C39CCCAD1950011D10AF068C188D190E
:1019530080068C188D19D2AF1215CAD0E0FDD0E0E5
:10196300FC22D083D082E9C0E0E493A3C386F0C510
:10197300F095F0F908E493A386F0C5F095F0700BA9
:10198300E493A3C3994005E9048002A3E475F0023C
:10199300A42582F582E5F03583F583D0E0F9E4935D
:1019A300A3C0E0E493C0E022D083D082ECC0E0ED9A
:1019B300C0E0E493A3FCE493A3FDED4C600D121986
:1019C300F7EC24FFFCED34FFFD80EFE493A3FCE48C
:1019D30093A3FDED4C600D121A36EC24FFFCED349D
:1019E300FFFD80EFD0E0FDD0E0FCE493A3C0E0E492
:1019F30093C0E022C0E0C3E4939608740193961861
:101A0300400FE493667008087401936618700070C1
:101A130019A3A3C3E49396087401939618A3A34050
:101A23000DD0E0D0E0D0E00219E7A3A3A3A3A3A3C2
:101A3300D0E022C0E0C0F088F0E493667008087438
:101A4300019366187000A8F0A3A3700BD0F0D0E048
:0E1A5300D0E0D0E00219E7A3A3D0F0D0E0224B
:101A640074F512177AEAFEEBFFEE2434F8EF340033
:101A7400F988088909EE2435F582EF3400F583E00E
:101A8400F8EE2437F582EF3400F583E0F50AEC85AF
:101A94000AF0A4FCAAF0850AF0EDA42AFDE82CF8CB
:101AA400E43DF97A257B0012162CEA850882850923
:101AB40083F05407F87401B800028004C333D8FCDF
:101AC400C0E0E0131313541FF8EE28F8EF3400F9C4
:101AD400E8245DF582E93400F583D0E0F8E058604D
:101AE40008EE2434F582EF801EEE2436F582EF34BE
:101AF40000F583E0F5F0EA84A8F0EE28F8EF34006E
:101B0400F9E82438F582E93400F583E0F97F04022A
:101B1400182674F512177AEAFEEBFFEE2434F582E8
:101B2400EF3400F583E0C0E0EE2435F582EF3400B5
:101B3400F583D0E0F08E828F83A3A3A3A3A3A3A3F2
:101B4400C082C0838E828F83A3A3A3A3A3E0F8A340
:101B5400E0F9D083D082E0C398F508A3E099F509B1
:101B6400EE2480F582EF3400F583E064017069EEC1
:101B74002481F582EF3400F583E0F8A3E0F98E8246
:101B84008F83A3A3A3A3A3A3A3E0FCA3E0FD8E825E
:101B94008F83A3A3A3A3A3E0FAA3E0FBC3EA9CEB74
:101BA4009D5027C3EC98ED99402EC3EA98EB9950C9
:101BB400277CFD7D04EEFAEFFB120B74EE2480F516
:101BC40082EF3400F583E4F0800EC3EA98EB994089
:101BD400E0C3EC98ED9950D9EE2434F8EF3400F9D1
:101BE400E8FCE9FDEE2435F582EF3400F583E0F8F6
:101BF400EE2437F582EF3400F583E0F50AE5088535
:101C04000AF0A4F508AAF0850AF0E509A42AF50962
:101C1400E82508F8E43509F97A257B0012162CEA40
:101C24008C828D83F05407F87401B800028004C3D9
:101C340033D8FCC0E0E0131313541FF8EE28F8EF78
:101C44003400F9E8245DF582E93400F583D0E0F846
:101C5400E0586008EE2434F582EF801EEE2436F559
:101C640082EF3400F583E0F5F0EA84A8F0EE28F87A
:101C7400EF3400F9E82438F582E93400F583E0F91B
:101C840012222C021B11C082C083851882851983FD
:101C9400E0F8A3E0F9C3EA9CEB9D5012C3EC98ED85
:101CA400994019C3EA98EB99501279018010C3EA5C
:101CB40098EB9940F5C3EC98ED9950EE7900D083F8
:101CC400D08222EAC39CFAEB9DFB22008521878502
:101CD40022C622C0E0C0D0E8C0E0E9C0E0EAC0E02B
:101CE400EBC0E0ECC0E0EDC0E0C008C009C00AC031
:101CF4000BC082C083C0F0759B00906182E0A2E6B5
:101D04004003021DB5E591A2E64003021DB575919D
:101D1400BF9003C2E064057008120CA0120CAC80E2
:101D240003120CA6752100120D00E99003C3F0798B
:101D340000120CF4120AEA7A017B009003C1E0F964
:101D4400120FCA907803E064426003021DFE9005FE
:101D54005FE014F06003021DFEC2AF121D62007842
:101D64002AD0E0F618D0E0F6E59F5407F970059004
:101D740084D380039084CF7808121587E9C4C0E027
:101D84007829E65508F50808E65509F509740B782D
:101D940008121695D0E02508F8906270E0A2E7409A
:101DA400F8E8C333906272F0906270E0D2E0F080A1
:101DB40049E0A2E55024E591A2E5501E7591DF901B
:101DC40003C2E0640D70139003E4E004F06428702F
:101DD40002E4F07A00E0F9120D72906181E0A2E36E
:101DE4005009E5E9A2E3500375E9F7A3E0A2E7503F
:101DF40009E591A2E7500375917FD0F0D083D0829A
:101E0400D00BD00AD009D008D0E0FDD0E0FCD0E05F
:101E1400FBD0E0FAD0E0F9D0E0F8D0D0D0E032C086
:101E2400E0C0D0C082C083906183E0A2E05009E5A5
:101E3400BFA2E0500375BFFEE0A2E15009E5BFA2D6
:101E4400E1500375BFFDE0A2E25009E5BFA2E250F4
:101E54000375BFFBE0A2E35009E5BFA2E35003759D
:101E6400BFF7E0A2E45009E5BFA2E4500375BFEF59
:101E7400E0A2E55009E5BFA2E5500375BFDFE0A28B
:101E8400E65009E5BFA2E6500375BFBFD083D082F8
:101E94008088C0E0C0D0E8C0E0E9C0E0EAC0E0EB80
:101EA400C0E0ECC0E0EDC0E0C0F0E5A7A2E6500F52
:101EB400E5A1A2E6500953A7BF75A1BF121EFBE519
:101EC400A7A2E5500CE5A1A2E5500653A7DF75A132
:101ED400DFE5A7A2E15009E5A1A2E1500375A1FD48
:101EE400E5A7A2E2500CE5A1A2E2500653A7FB75B8
:101EF400A1FBD0F0021E0C74F812177A7521019020
:101F040003C2E064067015120C408A828B83A3A37B
:101F1400A3A3A3A3E0FAA3E0FB120C8EA2AFE433C5
:101F2400FED2AF9003C8E0640170187A207B009061
:101F340003C1E0F912104E7A207B009003C1E0F94E
:101F4400120FD0906182E0D2E6F090055EE060214D
:101F540085C62280169003C7E064017008E5C65464
:101F6400F84405F5C653BEFC121CD074016521600B
:101F7400E4EEA2E092AF7F01021826008E238F24A4
:101F8400858228858327851882851983E0CEA3E07E
:101F9400CF852882852783EBC9EAC8EDCBECCA75C7
:101FA400F010C3E833C8E933C9EA33CAEB33CBC30F
:101FB400EA9EF526EB9FF525B35004AB25AA26EC43
:101FC40033CCED33CDD5F0DAAE23AF242274F11245
:101FD400177A8A088B098C0A8D0B740F12170278F2
:101FE4000C1215879084A378081215619084A37845
:101FF4000C1215617808790C121399501578087928
:102004000C12153990849378081213B9401579018C
:102014008013780C7908121539908493780C121374
:10202400B940EB79007F0802182674ED12177A8AFA
:10203400088B098C0A8D0B7413121702780C121575
:10204400879084A378081215619084A3780C1215E4
:1020540061780C790812139940117808790C1215DB
:1020640039AA08AB09AC0AAD0B80227510007511B2
:10207400007512007513017810790C121539781057
:102084007908121500AA10AB11AC12AD137F0C0223
:1020940018269084A378081215878A828B8378087F
:1020A4001215747F0402182674F512177A8C828D27
:1020B4008378081215878A828B83780812154DEA73
:1020C4002404F8EB3400F98C828D83A3A3A3A3E04A
:1020D400FCA3E0FD88828983C3E09CF0A3E09DF02B
:1020E40088828983C3E09420A3E0944E40229084A4
:1020F400C378081215878A828B8378081215268A7A
:10210400828B83A3A3A3A3E02420F0A3E0344EF0A6
:10211400808074F512177AE9FE900514E0FAA3E0C2
:10212400FBEEC333F8E433F9744328F5827483393E
:10213400F583E02AF508A3E03BF509780812192194
:102144009084BF1215A5121F8074021216CD8A083E
:102154008B098C0A8D0B741078081214C8AA08AB6A
:10216400097F0402182674F112177A8A0C8B0D8CDD
:102174000E8D0F740F121702E0FAA3E0FB74111214
:102184001702E0F508A3E0F5097413121702E0FE44
:10219400A3E0FF7808121921EA2401F508EB3400C2
:1021A400F509E4F50AF50B780C79081213D8908434
:1021B4008B7808121587780C79081213D8AA0CABFF
:1021C4000DAC0EAD0F121F8074021216CD8B09EAEE
:1021D400450960047A0180027A00EC2AFCED34009F
:1021E400FDECF8EDF97A717B0212162C8808890946
:1021F400E4F50AF50B8E828F837808121596ECF8B5
:10220400EDF97A717B0212162C8A088B0974057811
:10221400081216A48E828F83A3A3A3A3E508F0A3B8
:10222400E509F07F08021826C082C083E9906000A7
:10223400F0D083D08222C0E074F2121866A2AFE418
:1022440033FED2AFC2C0E5D1A2E4500653D1EF129F
:10225400122EEEA2E092AF7F010218C5C0E074F224
:10226400121866A2AFE433FED2AFE589A2E15003AF
:10227400121198758900C2C5EEA2E092AF7F0102E7
:1022840018C5C0E074F2121866A2AFE433FED2AFF0
:10229400E58BA2E05003121198758B00C2E880D838
:1022A400C0E0C0D0E8C0E0E5A8D2AFC2C7A2E792C0
:1022B400AFD0E0F8D0D0D0E032C0E0C0D0E8C0E089
:1022C400E9C0E0C008C009C082C083A2AFE433F90A
:1022D400D2AF9009E0E0F8A3E0687008539AFBA33A
:1022E40074018026C2E99009E0E0F508740125082C
:1022F400F074602508F58274093400F583E0F5C1B3
:102304009009E0E0C394804002E4F0E9A2E092AFD7
:10231400D083D082D009D008D0E0F9D0E0F8D0D072
:03232400D0E032D4
:10232800FFFFFFFFFFFFFFFFC082C083E9900B762E
:10233800F00225B474F712170EE99002E0F07C1849
:102348007D037AFF7BFF12081A9002E174FFF0A365
:10235800F0A3E4F0A3F079051207A29002E0E0F9F7
:102368001206CA7A387B081209FA0232C274F412C9
:10237800170E8A088B09EB548060309002E0E0F970
:10238800120FB28A0A8B0BAE0AAF0BEE4F60138E98
:10239800828F83E064B070031207BAEEFAEFFB1283
:1023A8000FA0AA08E5096480FB80047A007B00027C
:1023B800258374F212170E74FC1216B7EAFEEBFFAF
:1023C80074121217021237A9EE4F700302245D74BB
:1023D80002121702EEF0A3EF1227BEECF0A3ED12E3
:1023E80027BEAA82AB831206C4E9F50A706AE5081B
:1023F800450960648E828F8312378FEE4F60567A5C
:10240800067B001210068A0C8B0DA80CA90DE84952
:102418007005750A13804188828983E412246AEE64
:10242800F0A3EF1237BAE508F0A3E509F09002E649
:102438001224F19002E6700512326C801B12325A97
:102448008003EAFCEBFD8C828D831224F170F38CFF
:10245800828D8380E3750A02A90A74041216CD02DC
:1024680039A9F0A3123760A32274F212170E890A51
:10247800E975F017A4FEAFF09002E5E4F09002E3EE
:102488001224F1600A12100C9002E3E4F0A3F0EEBB
:10249800FAEFFB1210068A088B09EA4509602FEE4D
:1024A800FCEFFD7900120F889002E3E508F0A3E540
:1024B80009F07B0080081224DBE4F0A3F00BEBC3E7
:1024C800950A40F2E50A9002E5F079008002791356
:1024D8000239A9EB75F017A4F8A9F09002E3E028F7
:1024E800FAA3E0398A82F58322122EFEEA4B22747F
:1024F800F412170E740C121702123784FEE9FF75D6
:102508000800750900800CE5082401F508E5093480
:1025180000F509C3E5089CE5099D503285080A8540
:10252800090B7403780A1216A4EA250AF8EB350B8E
:10253800F988828983A3A3A3A3A3A3123341EE65D9
:102548000A7003EF650B70BFE8FAE9FB80047A00B4
:102558007B00802774F412170E7900EAA2E0501B62
:1025680075084C75098478081219217C047D007A55
:10257800787B0B12079C74021216CD7F040217E0B9
:10258800C082C0839002E61225BB601C88828983C2
:10259800A3A3E06A7003A3E06B8882898370E8A331
:1025A800A3A3A3122EFA80047A007B00D083D082E2
:1025B800020122123A8FE8492274EE12170E74FCB7
:1025C8001216B7EAFEEBFF851882851983E4F0A39B
:1025D800F0EE240212324CEE2405123767EE240482
:1025E800F50EEF122B73E024FE603924FC604624BC
:1025F800FE605224FE605E24FE70030226D424FE90
:10260800700302273824FE700302274724FE700354
:1026180002275624FC700302276524FE7003022754
:10262800740227B19002FF7417F0A3E41227C612B0
:1026380004420227B1851882851983AC82AD8312C2
:1026480007C0022781851882851983AC82AD831261
:1026580007C6022781850C08850D09740212170226
:10266800AC82AD83850882850983122EFA1206E8AA
:102678008A0C8B0DAC0CAD0DEC4D603BE4F50CF504
:102688000D780C121921750CFF750D02780C1219B2
:1026980021750C00750D03780C1219217408121796
:1026A80002121938123C0B1216CDE9F50C700B12F8
:1026B8002EF012045A800F750C0185088285098353
:1026C8001227B412326C850C080227847402121780
:1026D80002AC82AD83850C82850D83122CC5603CCB
:1026E800850C82850D83A3A31219387510FF751107
:1026F800027810121921751000751103781012193B
:10270800217408121702121938123C0B1216CDE95F
:10271800F509700B122EF0120460800F75090185FF
:102728000C82850D831227B412326C850908804CFF
:10273800851882851983AC82AD831207CC803A85CF
:102748001882851983AC82AD831207D2802B851835
:1027580082851983AC82AD831207D8801C851882C4
:10276800851983AC82AD831207DE800D85188285BA
:102778001983AC82AD831207E4E9F508E5086029FE
:102788008E828F83A3E06414601F850E82850F8379
:10279800E09002FF1227BE123A8B90030012326CAF
:1027A800E508A31227C612043C02315B123A8F8552
:1027B800188285198322F085188285198322F07C76
:1027C800FF7D02850A82850B83122EFE2274EE128B
:1027D800170E74FC1216B78A0A8B0B8C0E8D0FEA33
:1027E8002405F508EB3400F5097C157D0079007A9D
:1027F800FF7B02120F88E5082402F50CE509123761
:102808006A8518828519838582108583117810124C
:102818001921850882850983A3A3A3A3122CBC12BE
:102828001921E5082405F510E5093400F51178109B
:10283800121921850C82850D831230111206E2745B
:10284800061216CD8A108B11AE10AF11E50A2402BC
:10285800F50AE50B12324FEE4F70030229938017E9
:102868007402121702122EFA88828983EAF0A3EB07
:10287800F09002FFE004F09002FFE0C394054003EB
:10288800022993E4F510F51178101219217510E852
:1028980075110278101219217510E9751102781056
:1028A80012192174061217021219387910EEFCEF6A
:1028B800FD123C0D1216CDE9705E850882850983EC
:1028C800A3A3A3A3A3A3A3E0F89002E8E068704839
:1028D800122CBC1219217CE97D02E5082408FAE5CE
:1028E800093400FB120F8274021216CDE960298E9A
:1028F800828F83A3A3A3A3122EFA9002FFE0F51000
:10290800740278101216A474002510F58274033529
:1029180011F583EAF0A3EBF0740212170285821016
:1029280085831178101219217402121702121938AE
:10293800850C82850D83122F201216CD8A108B11DB
:10294800AE10AF119002FFE0F51075110074027817
:10295800101216A474FF2510F874023511F9888234
:102968008983A31224F1700302285FE8240308086E
:1029780008E93400F9EE4F600302286888828983E9
:1029880074FFF0A3F09002FFE004F09002FFE06013
:102998000A122EF012044E7900800B8508828509F0
:1029A80083123263790A02315B74EA12170E74FEDD
:1029B8001216B78C128D13EA2405F50CEB123BF5B1
:1029C800123793750800750900EA2402F510EB34F4
:1029D80000F51185188285198385820A85830B780D
:1029E8000A121921850C82850D83A3A3A3A3122B98
:1029F80089121921E50C2405F50AE50D12324F78E4
:102A08000A121921850C82850D83122B8D1206E27C
:102A180074061216CD8A0A8B0BEA450B7003022B3B
:102A28002EEA2404F50EEB122B731237938A828B4D
:102A380083A3A3A3E0F9851082851183122F046074
:102A480003022B2EE4F514F51578141219217514C8
:102A5800E875150278141219217514E975150278AC
:102A68001412192174061217021219387913AC0AB4
:102A7800AD0B851082851183123C131216CDE9F532
:102A8800096003022B2E9002E8E0F8E5087009E0DF
:102A98002402900300F08014900300E0FCE8240274
:102AA800FAE43400FBEA6C7001EB707E850882AAB8
:102AB80082122CB39414122CAB506B850E82850FA6
:102AC80083E0C0E074012A122B6AD0E0F005088583
:102AD8000E82850F83A3E0C0E085080A7401250AE9
:102AE800122B6AD0E0F005089002E8122B8912191F
:102AF800217CE97D0285080A7401250A122B7D12C2
:102B080016CD9002E8E02508F50874FF6E7003748E
:102B1800FF6F6012EE24010EEF3400FFE508C39446
:102B28001450030229DBE5086013122F0E8510826A
:102B3800851183122EFA12045479008014E5097065
:102B48000375090A851282851383EEF0A3EFF0A9B5
:102B58000974021216CD7F0E0217E085080C740165
:102B6800250CF58274033400F583223400F50F85B3
:102B78000E82F58322FA74033400FB120F7074027C
:102B8800221237C922A3A3122B932212325AFDEE26
:102B9800FAEFFB2274EE12170E74FE1216B78C0EA3
:102BA8008D0FEA2405F50CEB12376A750B009002BD
:102BB800FFE4F0F50AEA2402F508EB3400F5098091
:102BC800449002FFE0FA9002E8E0F8122CB3941760
:102BD800122CAB400D9002FFE0F87416C3989002D7
:102BE800E8F0122CBC1219217CE97D0274002AFA43
:102BF8007403122B801216CD9002E8E0F89002FFC1
:102C0800E028F0050AE50C2416F582E50D122B6E76
:102C1800E0F8E50AC39850749002FFE0C394165098
:102C28006BE50AC333F8E433F9E50C28FEE50D3902
:102C3800FF851882851983AC82AD838E828F8312BB
:102C48002CC57008750B0112325F8050E4F510F541
:102C58001178101219217510E875110278101219DF
:102C6800217510E9751102781012192174061217CE
:102C7800021219387916850882850983123C1312C5
:102C880016CDE9F50B7003022BC980BB7CFF7D02D2
:102C9800850882850983122EFA120466A90B74022C
:102CA80002315DE99400C365D03322EA28F8E434A0
:102CB80000F9E822E0F5107511007810221231525F
:102CC8008A108B11AC10AD11EC4D2274EA12170E5C
:102CD80074FC1216B78A0C8B0D8C128D13EA24051E
:102CE800F50AEB12324F750800750900E50A24024F
:102CF800F510E50B3400F511740212170285820EE7
:102D080085830F780E121921850A82850B83A3A368
:102D1800A3A312376F121921E50A2405F50EE50B56
:102D28003400F50F780E121921851082851183124F
:102D38003255122EF41206E274061216CD8A0E8B44
:102D48000FAE0EAF0FE50C2402F50EE50D3400F5BD
:102D58000F80388882898374FFF00508122B63740A
:102D6800FFF005089002E8E0F50C750D00780C12EC
:102D780019217CE97D0285080C7401250C122B7D34
:102D88001216CD9002E8E02508F508EE4F60278E70
:102D9800828F83A3A3A3E0F9850E82850F83122F68
:102DA80004EE2404123767E96027850C82850D83B9
:102DB800122EE612326CE5087003022ECC122F0E8A
:102DC800850E82850F83122EFA12046C7900022E6A
:102DD800E1E4F514F51578141219217514E8751540
:102DE8000278141219217514E9751502781412194C
:102DF8002174081217021219387911EEFCEFFD85BB
:102E08000E82850F83123C131216CDE9F509709ACC
:102E1800850882AA82EA9002E87009E024049003F7
:102E280000F08025E0F8900300E0F514E82404FCA5
:102E3800E43400FDEC65147001ED7081122CB3943C
:102E480012122CAB4003022DC5850C82850D83E040
:102E5800C0E074012A122B6AD0E0F00508850C82C4
:102E6800850D83A3E0C0E0122B63D0E0122F2985E3
:102E7800820C85830D780C12192174041217021222
:102E88001938851082851183122F201216CD8A0CCD
:102E98008B0DAE0CAF0D85080C7401250CF874036E
:102EA8003400F9EE4F7003022D5B85188285198373
:102EB800E088828983122F29A3E0C0E0122B63D017
:102EC800E0022D69E509700375090A850A82850BF8
:102ED80083122EE612326CA9097404022B5B123A93
:102EE8008F851282851383227CFF7D02850A828565
:102EF8000B83122EFE22E0FAA3E0FB22122EFE1212
:102F080006D0E9F50922900300E0F5F0E508849081
:102F180002FFF07CFF7D0222122B931206EE74044E
:102F280022F005088518828519832274EC12170E81
:102F380074FE1216B78A088B098C0E8D0FEA2405C9
:102F4800FEEB3400FF12313CEE2418123767EA45D5
:102F58000B7003022FDF12312550291230048A101A
:102F68008B11EA4511606B7912AC0AAD0B850882AA
:102F7800850983122EFA85108285118312170CE9B0
:102F8800F50A7058E4F50AF50B780A1219218E82B1
:102F98008F83A3A3E0F50A780A121921EE240312FD
:102FA800324C780A1219218E828F8312301112083E
:102FB8000874061216CDE9F50A7021850C82850D74
:102FC80083E0701F850882850983122EFA12047225
:102FD8008011750A0E8009750A018004E50A6003EC
:102FE80012325F850C82850D83E0600479008002CF
:102FF800A90A74021216CD7F0C0217E08518828583
:103008001983122EFE1207F62212325AFD85088203
:10301800850983122EFE2274EE12170E74FE121604
:10302800B78A088B098C0C8D0DEA2405FEEB340059
:10303800FF750E0012313CEA450B70030231031292
:103048003125502C1230048A0E8B0FEA450F604A46
:103058007912AC0AAD0B850882850983122EFA8590
:103068000E82850F8312170CE9F50E6003023106F4
:10307800850882850983123341AA0AFB1231177029
:10308800147AFF7BFF123117606C88828983E50A06
:10309800F0A3E50BF0750A008007750E0E805F053A
:1030A8000A9002E5E0FAE50AC39A504AE50A75F083
:1030B80017A4FAABF088828983A3A3E02AFAA3E0D5
:1030C8003BFB8A828B83123255EC4D70D2750A17FE
:1030D800750B00780A121921EEFCEFFD120F7074BF
:1030E800021216CDEEFCEFFD850882850983122EAB
:1030F800FA1204788014750E098003750E01123ACD
:1031080087850C82850D8312326CA90E022CA612BB
:1031180007EA8A108B11A810A911E84922E50824AA
:1031280002F508E5093400F5098A828B83A3A3A375
:10313800E0A2E522851882851983AC82AD838E8250
:103148008F831231528A0A8B0B22E0FAA3E0FB121A
:1031580006E82274041216CD7F0A0217E074EC12F6
:10316800170E8C108D11EA2405F50CEB12376A75D1
:103178000F00EA2402F50AEB12324F850A82F58322
:10318800122EFA123C997003023241750E008071BA
:10319800850C82850D83E06401704F8E828F83A336
:1031A800A31219388E828F83A3A3A3A3E0F5127507
:1031B80013007812121921EE2405F512EF3400F5E8
:1031C800137812121921122EF41208087406121616
:1031D800CDE9F50F6014850C82850D83E4F0123A71
:1031E8008785108285118312326C7C177D007900E7
:1031F800EEFAEFFB120F888E828F83E4F0A3F005BE
:103208000E9002E5E0F8E50EC398501EE50E75F045
:1032180017A4F8A9F0850882850983A3A3123BFFA8
:10322800123255EC4D600302319885088285098376
:1032380074FFF0A3F0E50F7006122EF412047EA9B5
:103248000F022FFFF50AEF3400F50B22A312325AB2
:10325800FD22E0FCA3E0228E828F83123A8F850E36
:1032680082850F83E8F0A3E9F022C082C083900230
:10327800E1E06A7003A3E06B70067AE17B028004E8
:103288007A007B000225B474F712170E7F00EF75E1
:10329800F003A4F8A9F0EC28F8ED39F988828983BD
:1032A800E06A7003A3E06B7006E8FAE9FB800B0F95
:1032B800EFC3940240D87A007B007F010217E074C4
:1032C800F612170E12387870067A007B008007A372
:1032D800A3A3A3122EFA02393974F212170EE9FECB
:1032E800740E12170212334174101217021237A902
:1032F8008C828D83E06402703BA3123A8B888289AA
:1033080083E0F50CA3E0F9A80C7402687003742933
:10331800697021750C02750D00780C121921780856
:10332800121921780A121921EEF912082C740612C2
:1033380016CD800279010239A9E0F50AA3E0F50B60
:103348002274E812170E74FB1216B7E985188285E5
:103358001983F08A168B178C0E8D0F741F121702A3
:103368001237A9742112170212334174231217025B
:103378001237937510008C828D83A3A3A3E0A2E477
:10338800502A741D12170212300A8A828B83E58232
:1033980045837003023455790AAC0EAD0FAA16ABFB
:1033A8001712170CE9F5106003023458850E828550
:1033B8000F83E06402600302370EA3123A8B85087C
:1033C80082850983A3858212858313E50E2406F579
:1033D8000CE50F12376A88828983E0FAA3E0F9EADC
:1033E8002400F514E439F51578141219AB0100001E
:1033F8002801281D3407000228F434032864340007
:10340800291E36012946360229ED3503291E3604C0
:1034180029AF360E37EE4F703E850C82850D83122C
:103428003784FAE9FB8A828B83E0850A82850B83DD
:103438001237C01219218A828B83A312325AFDAA2D
:1034480008AB09120F7074021216CD800375100EA6
:10345800A9107405023BED75100B80F4EE4F70F760
:10346800850A82850B837401F01237998508828555
:103478000983F07C007D00850E82850F83A3A3A3BA
:10348800A3E02401FAA3E03400FB1206E8EA4B604B
:10349800418A828B83E02402F8850A82850B83E0C7
:1034A80028F0EA2404F8EB3400F988828983E0855F
:1034B80012828513831237D21237C01219218A82D9
:1034C8008B83123254E5082403FAE5093400FB0221
:1034D800344B850A82850B83E02404F07C047D004C
:1034E8007900AA12AB13120F88023458EE4F60030A
:1034F80002345F123799FEA3E0FF850A82850B83A9
:103508007404F0EE850882850983F0EF85128285C0
:103518001383F07403121702AC82AD83EEFAEFFB4B
:1035280012386670030235CA8A828B83A3A31237C6
:103538008F740112170285820E85830F780E121977
:103548002174051217021219387CFF7DFF1206EE4E
:1035580074041216CD8B0FEA450F7033850C8285E3
:103568000D8312376F121921850C82850D83A312E2
:1035780019387C027D007A0C7B8512051A740412B6
:1035880016CDE9700A740112170274FFF0A3F08EC9
:10359800828F83E064027034750C02750D00780C1C
:1035A8001219218E828F83123254E5082404FAE519
:1035B80009122B801216CD850A82850B83E024021E
:1035C80080097401121702EEF0A3EFF074011217CC
:1035D80002123780F07401121702A3123778A3A3DE
:1035E800A3F0023458EE4F600302345F850C8285E5
:1035F8000D83123255AA16AB17120820850A828548
:103608000B837402F0EA850882850983F0851282AB
:10361800851383EB80CBEE4F600302345F1237993A
:10362800F8A3E0F9850A82850B837402F0E885081F
:1036380082850983F0E985128285138380A3850C2E
:1036480082850D83122EFA120F6AEAFC8C82A882F8
:10365800C39EE49F404BE86E7001EF70047C0080CD
:103668001F851882851983E0FAEE2AFAEF3400FBE9
:10367800C3EA98EB94005003E08004EECCC39CFCB2
:10368800EC850A82850B83F08C0A750B00780A1288
:103698001921850C82850D83E02EFCA3E03F0234BE
:1036A80046751007023458EE4F600302345F850CEC
:1036B80082850D83123A8B850A82850B837407F005
:1036C80088828983123778123760E08512828513E1
:1036D80083F0E82402FAE93400FB8A828B831237EC
:1036E800781237B1123780A31237BA123789F0E847
:1036F8002405F8E93400F988828983123789A312EE
:1037080037D2A30235E6741D1217021238717003FE
:10371800023455123A8B880C890DE8450D70030266
:1037280034558E108F117810121921780A12192128
:1037380078081219217406121702E0F9AC0EAD0FC1
:10374800AA16AB17850C82850D8312170C74061206
:1037580016CDE9F510023458F088828983A322F542
:103768000CEF3400F50D22E0F50E750F00780E22EF
:10377800E0850882850983221237D922123A8FE818
:10378800221237D9A3A322A3A3A3A3E0FEA3E0FF99
:1037980022850C82850D83E0F8A3E0F5838882E01A
:1037A80022E0F508A3E0F50922A3A3F08A828B831F
:1037B800A32212246CA3A322F08A828B831237C916
:1037C80022E0F50A750B00780A221237601237D901
:1037D80022E0850882850983A3A32274EE12170EBE
:1037E80074FE1216B78A0A8B0BECFAEDFB741412EE
:1037F8001702E0F510A3E0F5117416121702E0FEA7
:103808007418121702E0F50EA3E0F50F85188285EB
:103818001983AC82AD83123866603E85188285199B
:1038280083123871602FA3A31237A9E508450960F0
:1038380024780E1219217810121921EEF9AC0CAD6A
:103848000DAA0AAB0B85088285098312170C74042C
:103858001216CD8006790E80027901022CA6120676
:10386800E88A0C8B0DEA450D22122EFE12387822BA
:103878001207B48A828B83E58245832274F6121775
:103888000E74FE1216B7740C1217021237848518BC
:1038980082851983F07401121702E9F0E4F508F53E
:1038A8000978081219217508027808121921740478
:1038B80012170285820885830978081219211208CF
:1038C8000874061216CD74021216CD806474F712AD
:1038D800170EEAFEEBFF89087C187D03120820EA20
:1038E8005402600BA908EEFAEFFB1206DC8002799D
:1038F800010232C274F612170E74FF6A700374FF65
:103908006B701C7B00EB75F003A4F8A9F0EC28F8A9
:10391800ED39F912393E0BEBC39402501480E612CC
:1039280007F08A088B09A808A909E8496003123931
:103938003E7F020217E08882898374FF12246AE4BA
:10394800F02274F612170E1207F08A828B83E58232
:1039580045836006A3A3E0FA80027A007B0080D149
:1039680074F212170E8A088B09ECFEEDFF740E1222
:103978001702E0F50A1239AE701CEEFCEFFD7AFF73
:103988007BFF1239AE70047911801688828983E52D
:1039980008F0A3E509F088828983A3A3E50AF079F2
:1039A800007F060217E01207F08A0C8B0DA80CA9FD
:1039B8000DE8492274EE12170EEAFEEBFF8C088D13
:1039C80009890C7412121702123A8B741412170216
:1039D8001232557416121702122EFA750D00EC4D9C
:1039E8006003023A7F7402650C6003023A7A8882A7
:1039F800898312325AF9EC2400F50EE439F50FEAFE
:103A0800F4F8EBF4F9EC58F8E50F59F9E849705D6A
:103A1800E5082406F8E5093400F9880A890B888244
:103A2800F583122B8F1208208A108B11E50E651072
:103A38007004E50F65116042780E121921850A821B
:103A4800850B83122B8F12082674021216CDE9F506
:103A58000D7027780E121921850882850983A3A382
:103A6800122B8D12083E74021216CD800D750D8032
:103A78008008750D0D8003750D0BA90D0231608E40
:103A8800828F83123A8F22E0F8A3E0F92274E812B9
:103A9800170E74E71216B7851882851983EAF0A302
:103AA800EBF08C168D17890E7431121702E0F5129F
:103AB800A3E0F5137433121702E0F514A3E0F5152B
:103AC8007435121702E0F50F750800750900E5094D
:103AD80075F003A4F8A9F0851882851983123BFFB5
:103AE800E0F47003A3E0F47003023BDDEE2402F57A
:103AF8000CEF123BF5E07003023BDD85160A8517D3
:103B08000B780A121921AC14AD15AA12AB131207BF
:103B1800A874021216CD8A0A8B0BEA450B700302B1
:103B28003BDDE4F510F5117810121921740612170F
:103B380002858210858311781012192174091217D1
:103B480002858210858311781012192185128285C9
:103B58001383A3A3A3A31219387914AC0AAD0B8E4F
:103B6800828F83123C131216CDE97069850A82850B
:103B78000B83A3A3A3A3123A8B7402121702123267
:103B88006C850C82850D83E0A2E05018A90E7402A2
:103B9800121702AC82AD838E828F83122EFA12071F
:103BA80000E94208850C82850D83E0A2E15026E5F4
:103BB8000FF50A780A121925A90E7403121702AC18
:103BC80082AD838E828F83122EFA1206FA74011246
:103BD80016CDE942080509E509C394025003023AE3
:103BE800D6A90874191216CD7F100217E03400F513
:103BF8000D850C82F58322E028FEA3E039FF8E8232
:103C08008F83227916850A82850B83122EFE12086D
:103C18000274082274F212170EEAFEEBFF890B7485
:103C280001650B600E7402650B70637901120A1846
:103C3800E9705BEEFAEFFB123C996047750A008069
:103C48000B7C177D007900120F88050A9002E5E0C9
:103C5800F8E50AC3985021E50A75F017A4F8A9F009
:103C6800850882850983A3A3E028FAA3E039FB8AA3
:103C7800828B831225BB70C985088285098374FFEE
:103C8800F0A3F07C187D03EEFAEFFB12081A023954
:103C9800A91207EA8A088B09EA45092274F2121761
:103CA8000E8A088B09ECFEEDFF740E121702123310
:103CB80041900B76E0F4603D7A097B00120F9AEA96
:103CC8004B60328A828B8374B1F0A3E41237B3A3BA
:103CD8001237B1A3E508F0A3E509123D00EEF0A301
:103CE800EF123D00A3A3E50AF0A3E50BF0900B76D5
:103CF800E0F9120FA60239A9F08A828B83A3A3A345
:103D0800A3A322C082C0839061907404F0A3744876
:103D1800F0A37402F09061807440F09061BC740369
:103D2800F09061877419F0906265741BF090619C43
:103D3800740DF090619A7433F0A37455F09061A0FB
:103D4800743AF090055CE064017009C2919003C672
:103D5800746780059003C67461F090232EE49390F5
:103D68006186F0902328E493F46027E493540FF8D5
:103D7800906185E0686012E5C654804449F5C6E55F
:103D88009E547F644970F8E8F053C680E59E547FDE
:103D980070FA7905120D54023F20C082C083E5A84D
:103DA800F853A87E906181E4F0A3F0A3F0C2BA535F
:103DB8009AFEC289759B00C2C275E90075910075AB
:103DC800BF0075A91175B905906181F0A374C0F0A1
:103DD800A3E4F0D2BA439A0174805842A8023F2063
:103DE800C082C08374F81216B79003C4E0F8A3E049
:103DF800F9E8497003023F169003C4E05440602379
:103E08007908851882851983AA82AB83120BCE851F
:103E18001882851983AA82AB831208AA9003C4E08A
:103E280054BFF0E054806010790C7A807B05120B47
:103E3800CE9003C4E0547FF0E0A2E0503190619A44
:103E48007433F0A37455F09061A0743AF090055C57
:103E5800E064017009C2919003C6746780059003FD
:103E6800C67461F01208B09003C4E054FEF0E05448
:103E780002603190619A743FF0A3745AF09061A087
:103E8800747FF090055CE064017009D2919003C6DC
:103E9800747180059003C6746AF01208B09003C468
:103EA800E054FDF0E05404601390232CE4939061F7
:103EB80086F01208B69003C4E054FBF0E0540860A2
:103EC8001390232DE493906186F01208B69003C4F2
:103ED800E054F7F0E05410601390232EE4939061BF
:103EE80086F01208B69003C4E054EFF0E054206066
:103EF8000A1208B69003C4E054DFF0A3E05401604E
:103F08000D120AF61208BC9003C5E054FEF07408BE
:103F18001216CD8003F0A3F0D083D0820201227460
:103F2800EC12170E74F41216B7851882851983AC33
:103F380082AD8375838475826374041215CA9023D5
:103F48002C93F460030240B4907808E0C3940250C4
:103F5800030240947404121702AC82AD8375838403
:103F680075823274081215CA85188285198385826C
:103F7800128583137404121702AC82AD83750EFF89
:103F8800750FFF7FFF7E00750C48750D78801574DE
:103F9800086E700302402774096E7003024027748C
:103FA8000A6E607B850C82850D8378081215878CD4
:103FB800828D83A909E50AC9F8881074187808124F
:103FC80014C8E5104508F8C3E098A3E099850C8269
:103FD800850D83780812158740188C828D83741894
:103FE80078081214C8E5104508F8E0C398F8A3E06B
:103FF800801C741878081214C8E5104508FAE9FB03
:104008008C828D83E0F8A3E0F9EAC398F8EB99F97C
:10401800C3E8950EE9950F5006880E890FEEFF0E3E
:10402800E50C2404F50CE50D3400F50DEEC39413EE
:104038005003023F9774FF650E700474FF650F60AC
:10404800238F08740278081216A474482508F5828C
:1040580074783509F58378081215878512828513D7
:1040680083E508F0EC24020C0CED3400FD85128287
:10407800851383A3858212858313740C121702E5B6
:10408800826C7003E5836D6003023F8575080175D6
:10409800090078081219217402121702AC82AD8344
:1040A8007ACB7B0812117474021216CD740C121696
:1040B800CD7F0C0217E0C082C0839061AE7468F0B7
:1040C800A3746AF090624574FBF0A304F053F4FD06
:1040D80043FE0290055C7401F09061A0E0643A90A0
:1040E800619A70237433F0A37455F09061A0743A08
:1040F800F0740164017009C2919003C67467802846
:104108009003C674618021743FF0A3745AF09061E3
:10411800A0747FF0740164017009D2919003C67491
:104128007180059003C6746A023F1F7F040217E07E
:10413800C082C08390050EE06401700A900513E008
:104148006004790C80027900023F20C082C0837528
:10415800E1F1900511E0605514600814605914608D
:10416800518059120B08900507E0F97A087B05126F
:104178000CD69084871215A5120D0C9084AB1215DD
:10418800A5120CE2900512E0F9120CEE7901120D5D
:1041980048900505E02416F8A3E03400F9888289E0
:1041A800837420F0A3740BF07900023F20120B0EE9
:1041B80080B4120B1480AF120B1A80AA791280EA0D
:1041C80074F412170E75D90D9004F6E0A2E0E433EA
:1041D8001313F8900507E0C4333354C0484401F57D
:1041E800D97805790588828983A3A3A3E0F5D988BE
:1041F800828983A3A882A983E8640B7003E9640514
:1042080070E378F6790488828983A3E0F5D98882F7
:104218008983A3A882A983E864FC7003E964047015
:10422800E575E1959004F6E0F97AF77B04120CDC69
:10423800900B9874BAF0A3740AF0A37416F0A374E0
:104248000CF0A37416F0A3740CF0A37416F0A37406
:104258000CF0A374C0F0A3740AF0A37416F0A3744E
:104268000CF0A374D8F0A3740AF0900BA67416F09F
:10427800A3740CF0A37416F0A3740CF0A37416F0D6
:10428800A3740CF0A37416F0A3740CF0A37416F0C6
:10429800A3740CF0A37416F0A3740CF0900505E059
:1042A800F8A3E0F5838882A3A37808121587908481
:1042B8008F78081215139084A37808121561900559
:1042C80005E0240EF8A3E03400F988828983780891
:1042D800121596900505E02414F8A3E03400F98837
:1042E8008289837413F09003C27402F0024133C0D0
:1042F80082C083900517E02407F5D9900507E0C42C
:10430800333354C0F5D97805790588828983A3A306
:10431800A3E0F5D988828983A3A882A983E8640BDE
:104328007003E9640570E3900517E0601F7805796C
:1043380005FAE82413F582E93400F583E0F5D98815
:10434800828983A3A882A9831AEA70E6900537E0D8
:104358002407F5D9900507E0C4333354C04404F565
:10436800D97805790588828983A3A3A3E0F5D9883C
:10437800828983A3A882A983E8640B7003E9640592
:1043880070E3900537E0601F78057905FAE8243373
:10439800F582E93400F583E0F5D988828983A3A8FA
:1043A80082A9831AEA70E675E195900B9874C6F0B5
:1043B800A3740AF0A37416F0A3740CF0A37416F097
:1043C800A3740CF0A37416F0A3740CF0A374C0F0DB
:1043D800A3740AF0A37416F0A3740CF0A374D8F0B5
:1043E800A3740AF0900BA67416F0A3740CF0A374CF
:1043F80016F0A3740CF0A37416F0A3740CF0A37455
:1044080016F0A3740CF0A37416F0A3740CF0A37444
:1044180016F0A3740CF09084C31215A5900505E05E
:10442800240EF8A3E03400F9888289831215B1902C
:104438000505E02414F8A3E03400F9888289837420
:1044480012F09003C27401023F1FC082C08390051E
:1044580017E02407F5D9900507E0C4333354C04466
:1044680002F5D97805790588828983A3A3A3E0F5A5
:10447800D988828983A3A882A983E8640B7003E999
:10448800640570E3900517E0601F78057905FAE880
:104498002413F582E93400F583E0F5D9888289830D
:1044A800A3A882A9831AEA70E675E195900B98741F
:1044B800D2F0A3740AF0A374D2F0A3740AF0A37420
:1044C800D2F0A3740AF0A374D2F0A3740AF0A37410
:1044D800D2F0A3740AF0A374D2F0A3740AF0A37400
:1044E800D8F0A3740AF0900BA67416F0A3740CF01D
:1044F800A37416F0A3740CF0A37416F0A3740CF054
:10450800A37416F0A3740CF0A37416F0A3740CF043
:10451800A37416F0A3740CF09084C31215A590052B
:1045280005E0240EF8A3E03400F988828983121587
:10453800B1900505E02414F8A3E03400F9888289D5
:10454800837414F09003C27404023F1FC082C083B6
:10455800900517E02407F5D9900507E0C4333354D4
:10456800C04406F5D97805790588828983A3A3A371
:10457800E0F5D988828983A3A882A983E8640B70AF
:1045880003E9640570E3900517E0601F7805790575
:10459800FAE82413F582E93400F583E0F5D9888236
:1045A8008983A3A882A9831AEA70E6900537E024D4
:1045B80007F5D9900507E0C4333354C04404F5D94E
:1045C8007805790588828983A3A3A3E0F5D9888231
:1045D8008983A3A882A983E8640B7003E964057042
:1045E800E3900537E0601F78057905FAE82433F58C
:1045F80082E93400F583E0F5D988828983A3A8820B
:10460800A9831AEA70E675E195900B9874CCF0A32B
:10461800740AF0A37416F0A3740CF0A37416F0A334
:10462800740CF0A37416F0A3740CF0A37416F0A322
:10463800740CF0A37416F0A3740CF0A374D8F0A350
:10464800740AF0900BA67416F0A3740CF0A37416F9
:10465800F0A3740CF0A37416F0A3740CF0A37416F2
:10466800F0A3740CF0A37416F0A3740CF0A37416E2
:10467800F0A3740CF09084C31215A5900505E024EE
:104688000EF8A3E03400F9888289831215B19005E9
:1046980005E02414F8A3E03400F9888289837415AE
:1046A800F09003C27403023F1FC082C083900505C7
:1046B800E0F8A3E0F5838882A3A3A3A3A3A3E4025D
:1046C8003F1D74F712170E9003F0E0F875F004A47C
:1046D800C8AAF02AF974F228F8740339F9E824050D
:1046E800FAE93400FB8A828B83E0FCA3E0FD888230
:1046F8008983A3A3A3A3A3A3A3A3A3ECF0A3EDF08F
:1047080088828983A3A3A3A3A3A3A3E024FFF8A378
:10471800E034FFF98A828B83E8F0A3E902496F74D9
:10472800F712170EEAFEEBFF9061D0E06003024833
:104738000475D90E75D90375D904EE248CF582EF6A
:104748003400F583E5822408F8E5833400F9E0F5C0
:10475800D9A3E865827003E9658370F2EE2484F5D5
:1047680082EF3400F583E5822404F8E5833400F908
:10477800E0F5D9A3E865827003E9658370F275E115
:10478800957908EE248CFAEF3400FB120BC27904F9
:10479800EE2484FAEF3400FB120BC27C00EEF8EF33
:1047A800F9ECFAC3E49AFA95E0FBEE2AFAEF3BFB40
:1047B800EA248BF582EB3400F583E0C0E0E824AB13
:1047C800F582E93400F583D0E0F00C88828983A370
:1047D800A882A983ECC3940840C7EE2470F582EF41
:1047E8003400F583E0F8A3E0F9EE2472F582EF34A3
:1047F80000F583E8F0A3E9F0790180027900024925
:1048080070C082C08375D90275D90375D90575E161
:1048180095EA2470F582EB3400F583E0F8A3E0F91B
:10482800EA2472F582EB3400F583E8F0A3E9F07925
:1048380001023F2074F612170EEAFEEBFF900560A6
:104848007406F075086075090578081219217C014D
:104858007903120C0A74021216CD75D90675D9039C
:10486800758260758305E0F5D9A3E58264657004F7
:10487800E583640570F075E1959003C2E064087003
:104888001EEE2470F582EF3400F583E0F8A3E0F91A
:10489800EE2472F582EF3400F583E8F0A3E9F079AD
:1048A80001024A3C74F612170EEAFEEBFF9061D043
:1048B800E070667801900560740BF09003C2E064C4
:1048C80007701975086075090578081219217C01A7
:1048D8007903120C0A74021216CD7805740128F5B2
:1048E800D975D903758260758305E8FAE0F5D9A30F
:1048F8001AEA70F875E195EE2470F582EF3400F548
:1049080083E0F8A3E0F9EE2472F582EF3400F58332
:10491800E8F0A3E9F0790180027900024A3C74F7D3
:1049280012170EEAFEEBFF75D90375D90375D90D79
:10493800EE24DEF582EF3400F583E0F5D975E195D4
:104948007904120D12EE2470F582EF3400F583E03D
:10495800F8A3E0F9EE2472F582EF3400F583E8F06D
:10496800A3E9F079018001F07F010217E074F612E3
:10497800170EEAFEEBFF9061D0E0F87480C398FA56
:10498800EE2483F582EF3400F583E0600478048038
:10499800027800E8240BF8EAC3985003024A3A7DEB
:1049A80009900560EDF0EE24E3F8EF3400F97A6140
:1049B8007B057C0888828983E08A828B83F08882E1
:1049C8008983A3A882A9838A828B83A3AA82AB83C3
:1049D8001CEC70E0EE2483F582EF3400F583E06090
:1049E8001D75086075090578081219217C09790375
:1049F800EEFAEFFB120C0A74021216CD7D0D74014B
:104A08002DF5D975D9037582607583058D08E0F594
:104A1800D9A31508E50870F675E1957904120D1209
:104A2800EE241DF582EF3400F583E4F0A3F079015C
:104A3800800279007F020217E074F612170EEAFE70
:104A4800EBFF9061D0E0F87480C398FAEE2483F508
:104A580082EF3400F583E06004780480027800E88F
:104A68002408F8EAC3985003024B417D069005607C
:104A7800740CF09003DFE0900561F07AE07B037836
:104A88006279057C028A828B83E088828983F08A36
:104A9800828B83A3AA82AB8388828983A3A882A9F5
:104AA800831CEC70E07AE27B037C028A828B83E0D1
:104AB80088828983F08A828B83A3AA82AB838882C7
:104AC8008983A3A882A9831CEC70E0EE2483F58275
:104AD800EF3400F583E0601D7508607509057808F6
:104AE8001219217C067903EEFAEFFB120C0A740204
:104AF8001216CD7D0A74012DF5D975D9037582601A
:104B08007583058D08E0F5D9A31508E50870F675D5
:104B1800E1957904120D12EE2470F582EF3400F558
:104B280083E0F8A3E0F9EE2472F582EF3400F58310
:104B3800E8F0A3E9F0790180027900024A3C74F6B2
:104B480012170EEAFEEBFF9061D0E0F87480C3986C
:104B5800FAEE2483F582EF3400F583E060047804EC
:104B680080027800E82404F8EAC3985003024C2035
:104B78007802900560E8F0EE24F5F582EF3400F550
:104B880083E0900561F0EE2483F582EF3400F5832D
:104B9800E0601B75086075090578081219217C0208
:104BA8007903EEFA120C0A74021216CD7806740113
:104BB80028F5D975D9037582607583058808E0F5ED
:104BC800D9A31508E50870F675E195EE2474F58209
:104BD800EF3400F583E4F0EE2480F582EF3400F53D
:104BE80083E4F0EE241DF582EF3400F583E4F0A3AE
:104BF800F07904120D12EE240DF582EF3400F583DE
:104C0800E0F8A3E0F9EE2472F582EF3400F583E8CA
:104C1800F0A3E9F0790180027900024A3C74F612A7
:104C2800170E9061D0E0F87480C398FCEA2483F5ED
:104C380082EB3400F583E06004780480027800E8B1
:104C48002404F8ECC398405B79029005607407F07F
:104C5800EA24F6F582EB3400F583E0900561F0EA8A
:104C68002483F582EB3400F583E0601875086075DD
:104C7800090578081219217C0209120C0A7402121B
:104C880016CD7906740129F5D975D9037582607531
:104C98008305E9F8E0F5D9A318E870F875E1957986
:104CA8000180027900024A3C74F512170EE9FCA251
:104CB800AFE433F50AC2AF7D0080010DEA246FF539
:104CC80082EB3400F583E0F8EDC398501A8D08EABA
:104CD8002508F8EB3400F9E8246BF582E93400F58F
:104CE80083E06C70D68024EA246FF8EB3400F9E096
:104CF800FEEA2EFAEB3400FBEA246BF582EB340073
:104D0800F583ECF088828983E004F0E50AA2E0925A
:104D1800AF7F030217E074F612170EA2AFE433FD5B
:104D2800C2AFEA246FF582EB3400F583E014F07C1F
:104D38000060368C08EA2508F8EB3400F9E8246CA2
:104D4800F582E93400F583E0C0E0E8246BF582E9F8
:104D58003400F583D0E0F00CEA246FF582EB3400E0
:104D6800F583E0F8ECC39840CAEA246EF582EB3488
:104D780000F58374FFF0EA246AF582EB3400F583CA
:104D8800E4F0EDA2E092AF024A3CC082C083E5A8FD
:104D9800F8C2AFEA246BF582EB3400F583E9F0EA58
:104DA800246AF582EB3400F583E4F0E8A2E792AFD9
:104DB800023F2074F312170EEAFEEBFFECFAEDFB4C
:104DC8008A828B83A3A3A3A3E0541FF0EE2436F5B5
:104DD80082EF3400F583E4F0F50AEEFCEFFD8A82F9
:104DE8008B83E0C0E0EC245DF582ED3400F583D0E0
:104DF800E0F0750B00E50A33333354F8F50C8A827A
:104E08008B83E0F508750900E50B7808121685E52F
:104E180008A2E0502FEE2436F8EF3400F988828992
:104E280083E0F508EE2508F508EF3400F509E508F4
:104E38002438F582E5093400F583E50CF088828989
:104E480083E004F0050B050CE50BC3940840AF059F
:104E58000A8A828B83A3AA82AB838C828D83A3ACBC
:104E680082AD83E50AC394055003024DE67F05022F
:104E780017E074F712170E9003EEE0640170077ADA
:104E8800007B00024FF17E009003F4E070F17401A2
:104E9800F0A3E4F0A3F090045404F0900457E4F075
:104EA800A3F090045A04F09003F7E4F0A3F0A3F001
:104EB800A3F090040104F0900427E4F090846B12AE
:104EC80015A590040A1215B190040EE4F0A3F0A3FE
:104ED800F0900472F0900466F090045B7480F0A384
:104EE800E4F0900461F0900459F09004DDF0A3F030
:104EF800A3F0A3F0A3F0A3F0A3F0A3F09004E6F0CE
:104F0800900475F09004C5F0A3F090846B1215A579
:104F18009004C71215B190846B1215A59004CB129A
:104F280015B19004D1E4F09004D3F09004CFF09040
:104F380004E9F0A3F0A3F0A3F0A3F0A3F0A3F0A377
:104F4800F078EE7903E8246FF582E93400F583748C
:104F5800FFF00E88828983A3A882A983EEC39404F4
:104F680040E37AEE7B0378FD790488828983E0C088
:104F7800E0EA2461F582EB3400F583D0E0F0888222
:104F88008983A3A882A9838A828B83A3AA82AB83FD
:104F9800E864027003E9640570D07AEE7B0378D583
:104FA800790388828983A3E0C0E0EA24E7F582EBED
:104FB8003400F583D0E0F088828983A3A882A9838E
:104FC8008A828B83A3AA82AB83E864DD7003E964D9
:104FD8000370CF9003EEE004F0640170089003F6CC
:104FE800E09003F0F07AF27B03024970C082C0833C
:104FF8009003F5E4F09003F4F09003EEF0A3F0A32F
:1050080074FFF075E1F1023F20C082C08378007917
:10501800009003F5E0600478F2790388828983A31D
:10502800A3A3A3E0F9023F2074F612170EEAFEEBE1
:10503800FF8E828F83A3A3A3E0600F8E828F83A34A
:10504800A3A3E4F09003EFE014F09003EEE014F073
:1050580070069003F074FFF08E828F83A3A3E4F0B0
:10506800900502E0700D9003EFE06401700579008F
:10507800120CF4EE2465F582EF3400F583E0F8A312
:10508800E0F9E8496029EE2465F8EF3400F988086A
:1050980089098882F583E0FCA3E0FD9003F0E0FA3B
:1050A8007B001208E0850882850983E4F0A3F0EE0E
:1050B800FAEFFB120C3A024A3C74F712170EEAFE9A
:1050C800EBFF8E828F83A3A3A3A3E0FA7B001209D0
:1050D80022EEFAEFFB120B8C120C22024970C082EE
:1050E800C08378D5790388828983A3E4F08882898C
:1050F80083A3A882A983E864DD7003E9640370E6EA
:105108009003D602444D74F612170EEAFEEBFFEC3C
:105118002403F8ED3400F988088909EC2407F8ED30
:105128003400F9E8FCE9FD8C828D83E0F8A3E0F90E
:10513800850882850983E0FAA3E0FB12162CEE2489
:105148000DF582EF3400F583E8F0A3E9F08C828D49
:1051580083E0F8A3E0F9850882850983E0FAA3E0F3
:10516800FB12162C8B09EA45096013EE240DF58213
:10517800EF3400F583E02401F0A3E03400F0024AA4
:105188003C74F612170EEAFEEBFFEE242EF582EFC2
:105198003400F583E0FCA3E0FD780079FAECFAED41
:1051A800FB12162CEE2470F582EF3400F583E8F03C
:1051B800A3E9F0780079FAECFAEDFB12162C8B09CA
:1051C800EA45096013EE2470F582EF3400F583E0B8
:1051D8002401F0A3E03400F0024A3C74F012170EE8
:1051E800EAFEEBFF74101217027808121587120CEA
:1051F800B88A0C8B0D8C0E8D0F9084C7780C121505
:10520800139084A3780C121561780C12191D8E82E4
:105218008F83E0F8A3E0F5838882A3A31215A51273
:105228001FD174041216CDE960030253308E828FA9
:1052380083E02402F8A3E03400F9E8FAE9FB8A8263
:105248008B8378081215269084A378081215878A0C
:10525800828B837808121574EE240BF582EF3400E4
:10526800F583C082C0838E828F83A3A3A3A3A3E008
:105278002401F8A3E03400F9D083D082E0687003F9
:10528800A3E069700579010253328E828F83A3A34C
:10529800A3A3A3A3A3E02401F0A3E03400F0EE2429
:1052A80074F582EF3400F583E064017036EE2475FE
:1052B800F582EF3400F583E0F8A3E0F98E828F835E
:1052C800A3A3A3A3A3A3A3E0687003A3E069701337
:1052D800EE2475F582EF3400F583E02401F0A3E0B5
:1052E8003400F0EE2480F582EF3400F583E06401A9
:1052F8007036EE2481F582EF3400F583E0F8A3E000
:10530800F98E828F83A3A3A3A3A3A3A3E06870034A
:10531800A3E0697013EE2481F582EF3400F583E091
:105328002401F0A3E03400F079007F080217E0744C
:10533800F712170E9003F0E0F875F004A4C8AAF06D
:105348002AF974F228FE740339FF8028EE2465F8E0
:10535800EF3400F988828983E0FCA3E0FD88828924
:1053680083E4F0A3F08E828F83A3A3A3A3E0FA7B48
:10537800001208E0EE2465F582EF3400F583E0F8CA
:10538800A3E0F9E849604FEE2464F582EF3400F5B4
:1053980083E0F5087808121925EE2463F582EF34C6
:1053A80000F583E0F9EE2465F582EF3400F583E03B
:1053B800FCA3E0FDEEFAEFFB120BB674011216CD5A
:1053C800E96089EE2465F582EF3400F583E0F8A3FF
:1053D800E0F9E84970137C007D008E828F83A3A3D7
:1053E800A3A3E0FA7B001208E002497074F21217D6
:1053F8000EEAFEEBFF890A740E121702E0FAEE2499
:1054080062F582EF3400F583E0640160030254C062
:105418009061D0E0F87480C398F50CEE2483F5828F
:10542800EF3400F583E0600478048002780089088E
:10543800E928F8E43400F9E824020808E93400F916
:10544800E50C98E499A2D265D0334068EA700575F6
:105458000B028003750B01E06039750900780812AA
:1054680019217A607B05120BEC74021216CD7508AF
:10547800607509057808121921AC0AA90BEEFAEF34
:10548800FB120C0A74021216CD7404250AF50A7C64
:10549800607D057401250AF5D9850BD9E50A600DEB
:1054A8008C828D83F8E0F5D9A318E870F875E1953A
:1054B800790080067907800279FF7F060217E0C02D
:1054C80082C083E960208C828D83E08A828B83F09E
:1054D8008C828D83A3AC82AD838A828B83A3AA82BC
:1054E800AB8319E970E0ECFAEDFB023F2074EA1295
:1054F800170E907803E06442705E90055FE014F048
:105508007056C2AF12550F00782AD0E0F618D0E0D6
:10551800F6E59F5407F970059084D380039084CFF3
:105528007808121587E9C4C0E07829E65508F50817
:1055380008E65509F509740B7808121695D0E02588
:1055480008F8906270E0A2E740F8E8C3339062720E
:10555800F0906270E0D2E0F09003F0E0F4700302A3
:105568005918E0F875F004A4C8AAF02AF974F228CA
:10557800FE740339FFEE2402F582EF3401F583E06F
:10558800F8A3E0F9E849601EEE2402F582EF340141
:10559800F583E0FAA3E0FBEE2401F582EF3401F590
:1055A80083E0F9120FCA8E828F83A3A3A3A3A3A3B8
:1055B800A3E0F8A3E0F98E828F83A3A3A3A3A3E8B3
:1055C800F0A3E9F0906054E09003C9F0906055E0D2
:1055D8009003CAF0906056E09003CBF0906057E0DB
:1055E8009003CCF0906058E09003CDF0906059E0C3
:1055F8009003CEF090605AE09003CFF090605BE0AB
:105608009003D0F090605CE0FC9003D1F090605D76
:10561800E0FB9003D2F090605EE0FD9003D3F09041
:10562800605FE0FA9003D4F09003CFE08C0825087F
:10563800F8E43400F98D08E82508F8E93400F98B16
:1056480008E82508F8E93400F98A08E82508FAE99D
:105658003400FBEE24F7F582EF3400F583E02AF0FE
:10566800A3E03BF08C08EE24F9F582EF3400F583D3
:10567800E02508F0A3E03400F0EE24FBF582EF34D7
:1056880000F583E02401F0A3E03400F0EE24FFF5F8
:1056980082EF3400F583E0F8A3E0F9E8496042902E
:1056A8006000E0C333FCE433FDE82CF582E93DF506
:1056B80083E02AF0A3E03BF0906000E0FA9003D189
:1056C800E0FCEAC333FAE433FBE82AF8E93BF9E8FB
:1056D800244AF582E93400F583E02CF0A3E0340095
:1056E800F09003CFE070119003D2E0700BA3E0704C
:1056F80007A3E070030257F88E828F83A3A3A3A3A6
:10570800A3E0F8A3E0F9EE240DF582EF3400F58369
:10571800E028F8A3E039F9EE240BF582EF3400F520
:1057280083E8F0A3E9F0EE240FF582EF3400F58367
:10573800E4F0EE241CF582EF3400F583E064017098
:105748001EEE2420F582EF3400F583E0F8A3E0F99B
:10575800EE241DF582EF3400F583E8F0A3E9F0901C
:1057680003CAE06052EE241CF582EF3400F583741E
:1057780001F0EE246AF582EF3400F583E07038EE2C
:105788002474F582EF3400F583E0702BEE2480F565
:1057980082EF3400F583E0701EEE2420F582EF34AA
:1057A80000F583E0F8A3E0F9EE241DF582EF34005C
:1057B800F583E8F0A3E9F0906062E070030258AB6B
:1057C8008E828F83E0F8A3E0F9E82406FCE9340030
:1057D800FDE82402FAE93400FB120CB28E828F83B2
:1057E800E02412F8A3E03400F9888289830258B5CE
:1057F8009003D1E0603AEE240FF582EF3400F58390
:10580800E4F0EE241CF582EF3400F583E0640170C7
:1058180040EE2420F582EF3400F583E0F8A3E0F9A8
:10582800EE241DF582EF3400F583E8F0A3E980202B
:10583800EE24FDF582EF3400F583E02401F0A3E0C7
:105848003400F0EE241DF582EF3400F583E4F0A374
:10585800F0EE240BF582EF3400F583E0F8A3E0F9CD
:105868008E828F83A3A3A3A3A3E0687003A3E06938
:105878006003025767EE240FF582EF3400F583E0EA
:1058880060128E828F83A3A3A3A3A3E06405700292
:10589800A3E0600B7908EEFAEFFB120B92807179A6
:1058A8003E80F3EE241DF582EF3400F583E4F0A387
:1058B800F0906060E0C0E0EE2469F582EF3400F516
:1058C80083D0E0F09003CFE0F8EE2467F582EF3460
:1058D80000F583E028025A1890055DE064017035F0
:1058E800120D60EE2467F582EF3400F583E0700650
:1058F8009060607480F0EEFAEFFB120C7CE96401B2
:10590800600E120BB0120C76E964016003120C22CF
:105918007F0E0217E0EE2483F582EF3400F583E072
:105928006004780480027800E50CC398F91208D462
:105938008A0A8B0BEA450B60A7EE2483F582EF34C5
:1059480000F583E070048A088B09E50C601285086D
:1059580082850983F512E5D9F0A31512E51270F6D0
:10596800EE2483F582EF3400F583E0603774FC257C
:105978000CF50C7808121921AC0CA90DEEFAEFFB06
:10598800120C1074021216CDE970197403650D70AB
:1059980003025A58E50A24FBFAE50B34FFFB121000
:1059A8000C025A587403650D7003025A5D850C0E7B
:1059B800750F00780E121921AC08AD09AA0AAB0BB5
:1059C800120BEC74021216CDEE2469F582EF340046
:1059D800F583E064807004747F8001E0F50878083E
:1059E800121925E50DF5087808121925A90CAC0A35
:1059F800AD0B9003F0E0FA7B001208DA740212167D
:105A0800CD120D6CEE2467F582EF3400F583E014B7
:105A1800F0E070030258F8750860750905750A000A
:105A2800750B00E5D914F50CE5D95403F50D602084
:105A38007403650D7003025952E50C70030258E0B7
:105A4800EE2468F582EF3400F583E060030258E045
:105A5800793D02589E850882850983E0F8A38582EE
:105A680008858309603B147003025C5514700302B7
:105A78005F49147003025CB324FD7003025DD31404
:105A88007003025A09147003025E2924FE7003028F
:105A98005DE2147003025E24147003025EBE025EAF
:105AA800CDEE2477F510EF3400F511E085108285EE
:105AB8001183F0850882850983A385820885830977
:105AC800EE2478F50EEF3400F50F7902AC08AD0935
:105AD800AA0EFB120BBC8A088B09EE247AF50CEF90
:105AE8003400F50D7902AC08AD09AA0CFB120BBC09
:105AF8008A088B097902AC08AD09EE247CFAEF34E8
:105B080000FB120BBC8A088B09EE247EF50AEF34E1
:105B180000F50B7902AC08AD09AA0AFB120BBC8A86
